:0600000002099312005CEE
:03000B0012009E42
:0100130032BA
:01001B0032B2
:0100230032AA
:01002B0032A2
:03003300C2DD32F9
:01003B003292
:01004300328A
:01005300327A
:10005B003220183EC0E0C0D0C000C0F0C2A8D2020F
:10006B00D207300F061204EE020095D20F852180C5
:10007B00D2A4C2A4F5F7C20EC20D852180D2A4C2B0
:10008B00A430FFFDD205D200D207D0F0D000D0D0E3
:10009B00D0E032C0E0C0D0C000C0F0783875F004BA
:1000AB0006E6702B08D5F0F8E53C6023C28CC2A99C
:1000BB00D20F852180D2A4C2A4F5F7C20EC20D8542
:1000CB002180D2A4C2A430FFFDD205D200D207D02A
:1000DB00F0D000D0D0D0E032F58020A2FDC2A1D26A
:1000EB00A1227580FF20A3FDC2A0E580D2A0223003
:1000FB00A302D3227580FFC2A0E580D2A0C32275D4
:10010B0080FF20A307C2A0D2A030A3F922C0E0E455
:10011B0093600CF580A320A2FDC2A1D2A180F0D0E8
:10012B00E0224F4B0D0045520D00264D6564697062
:10013B006978322055534220497465726661636554
:10014B000A56657273696F6E3A20322E302E386103
:10015B000D002E4B6E6F776E20636F6D6D616E644D
:10016B00733A200024313233343536373839307115
:10017B00776572747975696F706173646667686AA5
:10018B006B6C7A786376626E6D0010526573657274
:10019B0076656420636F6D6D616E640011526573DB
:1001AB00657276656420666F72204D505833000F70
:1001BB00556E6974206973206F6E206C696E650DC6
:1001CB00000E5761746368646F6720616C657274AD
:1001DB000D0012456E61626C654F75742065787009
:1001EB0065637465640D0021446966666572656EAE
:1001FB007420616D6F756E74206F6620646174611D
:10020B002065787065637465640D00274D617472A9
:10021B00697820526561646F757420646F65732013
:10022B006E6F7420737461727420636F7272656386
:10023B00746C790D00174D61747269782077617356
:10024B00206E6F742072656164206F75740D0012DF
:10025B004D656D6F72792077726974652065727266
:10026B006F720D000E436865636B73756D2065725D
:10027B00726F720D0014556E6B6E6F776E20636F1D
:10028B006D6D616E643A20220018496E746572764A
:10029B00616C20616C72656164792072756E6E6938
:1002AB006E6700220D005F034E69035B3F03652100
:1002BB0003813C03965B03C75D03E749042D3A04B6
:1002CB003746044178047458047B73031E6204821E
:1002DB007403286F049A6304BE4F04E451053D4434
:1002EB0005676E076743064552068D23057754064F
:1002FB00DB45077C6407C46D07F472084B53055349
:10030B0042055D2C08A02008A325091F4D08D93EE6
:10031B0008AF00743111E39001953118227430113C
:10032B00E311ED54037005D2B4C2B62215E070058B
:10033B00C2B4C2B62215E07005C2B4D2B622D2B492
:10034B00D2B622743011E390012D311802E0002255
:10035B00743111E3900135311822743111E390019E
:10036B005D31189002B1E493600711E3A3A3A3805E
:10037B00F5740D11E322743111E3900195311822BC
:10038B00742111E3743311E3311822743211E31128
:10039B00ED11E311ED11E311ED11E3E52011E32272
:1003AB00743C11E3743411E3E411E311E30411E33E
:1003BB00E52011E390012D3118C20722743211E3AD
:1003CB0011EDF5C711EDF5C675B901E5BC11E3E506
:1003DB00BD11E3E5BE11E3E5BF11E322743011E378
:1003EB0011EDF5F054F8703585F0C7E5F070091193
:1003FB00ED602AF5C602040711EDF5C611EDF5BC4B
:10040B0011EDF5BD11EDF5BE11EDF5BF75B9057526
:10041B00B90275B904E5B97004C302042CD3900278
:10042B005A22743111E3900195311822743111E382
:10043B00900195311822743011E311ED946C7024F6
:10044B0011ED9461701E11ED9473701811ED946899
:10045B00701275C70075C60075B90590012D31185E
:10046B00C302E000D390025A22743011E3C2A722D8
:10047B00743011E3D2A722743011E311ED75F83308
:10048B00C2B7F5F730FFFDC2FFD2B775F830227453
:10049B003011E3200518D20ED20D852180D2A4C2D3
:1004AB00A4C20F852180D2A4C2A4120B7222D390B6
:1004BB00024022743011E3D20F852180D2A4C2A452
:1004CB00F5F7C20EC20D852180D2A4C2A430FFFD68
:1004DB00C28CC2A9D205D20722743011E3208C45FD
:1004EB00120B4120053AD20ED20D852180D2A4C227
:1004FB00A4C20F852180D2A4C2A420191AC28CC217
:10050B00A985328A85338C85343885353985363AD9
:10051B0085373B120B8F22D218D2A80000C21822AB
:10052B00D39002402275F00611EDD5F0FBD390026B
:10053B009422743011E3208CEC120B412005E1D294
:10054B0018D2A80000C21822743111E39001A73110
:10055B001822743111E39001A7311822743011E382
:10056B0011EDF521852180D2A4C2A422743211E3AE
:10057B0011ED11E311ED11E311ED11E37530007580
:10058B003100D20EC20DD20F852180D2A4C2A4D2CB
:10059B00A5C2A675F83075D70075F00075F7FF305A
:1005AB00FFFDC2FF30A503D5F0F275D700D2A6E54B
:1005BB00F0F4040475F02084F531C208852180D253
:1005CB00A4C2A4D208852180D2A4C2A4D20EC20D8B
:1005DB00D20F852180D2A4C2A4D2A5C2A675F834AD
:1005EB0075D700E5312405F8790490000075F7FF05
:1005FB0030FFFDC2FFE5F7D8F4F0A3D90C7530023C
:10060B0030E40A753003020618780180E075D700D4
:10061B00D2A6C208852180D2A4C2A4D2088521808B
:10062B00D2A4C2A4E53011E3E53111E390000075CB
:10063B00F004E011E3A3D5F0F922743011E311EDCE
:10064B00F8F404F58211EDF9F4F58311EDFAF4F5F4
:10065B008475F001E8494A700990000075840075B3
:10066B00F000D20EC20DD20F852180D2A4C2A4D22B
:10067B00A5C2A675F83075D700120A8875D700D2B7
:10068B00A622743211E311ED11E3F8F404F5821193
:10069B00ED11E3F9F4F58311ED11E3FAF4F584753B
:1006AB00F001E8494A700990000075840075F0006C
:1006BB00D20EC20DD20F852180D2A4C2A4D2A5C264
:1006CB00A675F83475D700120AD175D700D2A622B9
:1006DB00743011E311EDF811ED04F911EDFAD20AB2
:1006EB00D20ED20D852180D2A4C2A4120BBAC20F96
:1006FB00852180D2A4C2A4120BBA120BBA120BBA68
:10070B00120BBA120BBA120BBA120BBA120BBA1299
:10071B000BBA120BBAD209852180D2A4C2A48AF0DB
:10072B00120760C209852180D2A4C2A48AF01207E5
:10073B0060D8E2D9E0C20AD20F852180D2A4C2A42C
:10074B00F5F7C20EC20D852180D2A4C2A430FFFDE5
:10075B00D205D20722120BBAD5F0FA22743211E36A
:10076B0011ED11E311ED11E311ED11E3E52111E3AE
:10077B0022743011E311EDF8F404F58211EDF9F464
:10078B00F58311EDFAF4F58475F001E8494A700927
:10079B0090000075840075F000C20ED20DD20F854B
:1007AB002180D2A4C2A4D2A5C2A675F83075D700F9
:1007BB00120A8875D700D2A622743011E3C20EC27A
:1007CB000DD20FD20C852180D2A4C2A4D2A5C2A671
:1007DB0075F83475D70075F70030FFFDC2FF20A503
:1007EB00F5C3D2A6C206C20522743211E311ED1174
:1007FB00E3F8F404F5821200ED1200E3F9F4F5834B
:10080B001200ED1200E3FAF4F58475F001E8494AA1
:10081B00700990000075840075F000200613C20E5D
:10082B00C20DC20CD20F852180D2A4C2A4D2A5C204
:10083B00A6D20675F83475D700120AD175D70022E7
:10084B0074321200E31200ED1200E3F8F404F582A7
:10085B001200ED1200E3F9F4F5831200ED1200E340
:10086B00FAF4F58475F001E8494A700990000075B7
:10087B00840075F000300615C20675F83475D70084
:10088B00120AD175D700D2A6C20502089F120AD14F
:10089B00D39002162280FE2274311200E390016F76
:1008AB001201182274301200E31200ED5401F5F01E
:1008BB001200EDF5821200ED540FF583E5F0700791
:1008CB008583FA8582F9228583FC8582FB2274322B
:1008DB001200E31200ED1200E31200ED1200E3121E
:1008EB0000ED1200E3C2AF75EF0075D20475D300B3
:1008FB0075D40075D84075EF9CD2DD30DFFD75F0F7
:10090B000D900004E01200E3A3E01200E3A3D5F086
:10091B00F3D2AF2274321200E31200ED1200E31295
:10092B0000ED1200E31200ED1200E3E53C702685AA
:10093B008A82858C83E5821200E3E5831200E3E56E
:10094B00381200E3E5391200E3E53A1200E3E53B28
:10095B001200E3C322858A82858C83C3E58295329C
:10096B001200E3E58395331200E3E538953412006A
:10097B00E3E53995351200E3E53A95361200E3E5E8
:10098B003B95371200E3C32230C2069001CC120311
:10099B008BC2AF75817F75D70043AF0175F834C239
:1009AB00A775FD1FC28C758911120B56C2A8D28870
:1009BB00D2B8C2A8C218752000120B9BC2088521A1
:1009CB0080D2A4C2A4752189852180D2A4C2A4D2CD
:1009DB00A6D2A5C2B6D2B4D2C075C07212010A900B
:1009EB0001BA12038BD2AFD5F008C2AFD2C0D2C1BD
:1009FB00D2AF3007031203AB1200FA40EA120A100F
:100A0B0075F00080E2C2AFD2C0D2C1D2AFF5F075A3
:100A1B0084009002B1E493A36044B5F03DE493F9F4
:100A2B00A3E493F8E5F01200E3900A41C082C0837F
:100A3B00C000C001C322758400400990012D120132
:100A4B0018020A7FE5834582602A74211200E37441
:100A5B00311200E3120118020A7FA3A380B774318D
:100A6B001200E3900280120118E5F01200E39002ED
:100A7B00AE120118C2AFD2C0D2C1D2AF227580FF65
:100A8B0020A3FDC2A08580F7D2A0A3E582458345B4
:100A9B0084C3C2AFD2C0D2C1D2AF30FFFDC2FF30D0
:100AAB00A50970D9D39001DD020AD06018E5F0607A
:100ABB0014A3E5824583458420A3FDC2A0D2A07078
:100ACB00F0D39001F222F5F7020ADFF5F720A2FD31
:100ADB00C2A1D2A1A3E58245834584C2AFD2C0D2C5
:100AEB00C1D2AF30FFFD85F78030A51470DD20A299
:100AFB00FDC2A1D2A1C3200629D39001DD020B2D8B
:100B0B0020A2FDC2A1D2A1C36018E5F06014A3E539
:100B1B00824583458420A2FDC2A1D2A170F0D3905F
:100B2B0001F22275F700A3E58245834584C330FFAC
:100B3B00FDC2FF70EE22D219783275F0061200ED6D
:100B4B006002C219F4F608D5F0F322C000C0F0C061
:100B5B00E0C28CC2A9783275F010E4F608D5F0FB30
:100B6B00D0E0D0F0D00022C28CC2A9C0E0E4F58A5C
:100B7B00F58CF538F539F53AF53B753C00D0E0D2FC
:100B8B00A9D28C22C28CC2A9753C01D2A9D28C22CB
:100B9B007800900004758400E8F0A32410F8E4F0CA
:100BAB00A3B8D0F474C0F0A3E4F0A374F0F022C0A7
:100BBB00F075F00C00000000000000D5F0F6D0F04E
:100BCB002200000000000000000000000022C0F026
:100BDB00C082C083F58375826475F032D5F0FDD584
:100BEB0082F7D583F1D083D082D0F022C0E0746439
:100BFB0071D9D0E022C0E074FA71D9D0E022910013
:060C0B0080F3910980F85E
:00000001FF
