:0600000002089502005CFD
:03000B000200965A
:0100130032BA
:01001B0032B2
:0100230032AA
:01002B0032A2
:03003300C2DD32F9
:01003B003292
:01004300328A
:01005300327A
:10005B0032201836C0E0C0D0C000C0F0C2A8D20217
:10006B00D2073008061204B502008DD20885218014
:10007B00D2A4C2A475F70030FFFDC2FFD205D20097
:10008B00D207D0F0D000D0D0D0E032C0E0C0D0C08A
:10009B0000C0F0783675F00406E6702308D5F0F84A
:1000AB00E53A601BC28CC2A9D208852180D2A4C2BA
:1000BB00A475F70030FFFDC2FFD205D200D207D0E6
:1000CB00F0D000D0D0D0E032F58020A2FDC2A1D27A
:1000DB00A1227580FF20A3FDC2A0E580D2A0223013
:1000EB00A302D3227580FFC2A0E580D2A0C32275E4
:1000FB0080FF20A307C2A0D2A030A3F922C0E0E466
:10010B0093600CF580A320A2FDC2A1D2A180F0D0F8
:10011B00E0224F4B0D0045520D00254D6564697073
:10012B006978332055534220497465726661636563
:10013B000A56657273696F6E3A20322E312E310D6D
:10014B00002E4B6E6F776E20636F6D6D616E6473F7
:10015B003A20002431323334353637383930717721
:10016B006572747975696F706173646667686A6BC1
:10017B006C7A786376626E6D001052657365727679
:10018B00656420636F6D6D616E64000F556E6974ED
:10019B00206973206F6E206C696E650D000E5761C0
:1001AB00746368646F6720616C6572740D0012452F
:1001BB006E61626C654F75742065787065637465EC
:1001CB00640D0021446966666572656E7420616D0D
:1001DB006F756E74206F6620646174612065787032
:1001EB0065637465640D00274D61747269782052E4
:1001FB006561646F757420646F6573206E6F742016
:10020B00737461727420636F72726563746C790DB1
:10021B0000174D617472697820776173206E6F746B
:10022B002072656164206F75740D00124D656D6FE2
:10023B007279207772697465206572726F720D0026
:10024B000E436865636B73756D206572726F720D0B
:10025B000014556E6B6E6F776E20636F6D6D616EF4
:10026B00643A20220018496E74657276616C2061C5
:10027B006C72656164792072756E6E696E670022AF
:10028B000D005F02F16902FE3F03082103243C03CA
:10029B00395B036E5D038E4903D43A03DE4603E8F4
:1002AB0078041B58042273042962043344057853E1
:1002BB0005EF42062243064E5206B44506816D07F2
:1002CB000572075354052E6F045563048A4F04A817
:1002DB005105182C07AF2007B274044B2508214D8C
:1002EB0007E23E07BC00743011D390011D310802A8
:1002FB00E00022743111D3900125310822743111A1
:10030B00D390014C310890028DE493600711D3A375
:10031B00A3A380F5740D11D322743111D3900184F2
:10032B00310822742111D3743311D3310822743262
:10033B0011D311DD11D311DD11D311DD11D3E52053
:10034B0011D322743C11D3743411D3E411D311D3D0
:10035B000411D3E52011D390011D3108C207C2024D
:10036B00C20022743211D311DDF5C711DDF5C6754C
:10037B00B901E5BC11D3E5BD11D3E5BE11D3E5BF82
:10038B0011D322743011D311DDF5F054F87035858B
:10039B00F0C7E5F0700911DD602AF5C60203AE1156
:1003AB00DDF5C611DDF5BC11DDF5BD11DDF5BE11B9
:1003BB00DDF5BF75B90575B90275B904E5B97004FA
:1003CB00C30203D3D390023622743111D39001842C
:1003DB00310822743111D390018431082274301109
:1003EB00D311DD946C702411DD9461701E11DD94BA
:1003FB0073701811DD9468701275C70075C600759F
:10040B00B90590011D3108C302E000D390023622DA
:10041B00743011D3C2A722743011D3D2A7227431F6
:10042B0011D3900184310822743011D311DD75F88A
:10043B0033C2B7F5F730FFFDC2FFD2B775F83022E4
:10044B00743111D3900184310822743011D32005FB
:10045B0029C20D852180D2A4C2A475F70030FFFDFF
:10046B00C2FF1205B5120A47C208852180D2A4C269
:10047B00A475F70030FFFDC2FF22D390021C22743B
:10048B003011D3D208852180D2A4C2A475F70030D5
:10049B00FFFDC2FFC28CC2A9D205D2072274301154
:1004AB00D3208C5C120A160204B5208C5320054B0A
:1004BB00C20D852180D2A4C2A475F70030FFFDC206
:1004CB00FF1205B5C208852180D2A4C2A475F7001E
:1004DB0030FFFDC2FF20191AC28CC2A985308A8554
:1004EB00318C853236853337853438853539120A68
:1004FB006422D218D2A80000C21822D390021C2268
:10050B0075F00611DDD5F0FBD3900270227430111B
:10051B00D3208CEC120A162005E1D218D2A80000C9
:10052B00C21822743011D311DDF811DD04F911DD7D
:10053B00FAC20F852180D2A4C2A475F70030FFFD4B
:10054B00C2FF8AF0120571D20F852180D2A4C2A4FA
:10055B0075F70030FFFDC2FF8AF0120571D8D2D9B2
:10056B00D0D205D20722120A8FD5F0FA227430119D
:10057B00D375F83011DDF521852180D2A4C2A47585
:10058B00F70030FFFDC2FF300B0C300D1D30083C67
:10059B00300E39300F36D20B852180D2A4C2A47510
:1005AB00F70030FFFDC2FF0205EED20D852180D290
:1005BB00A4C2A475F70030FFFDC2FF7582FB7583E3
:1005CB00FF7584FF120A03C2050205EE120A8FD2D1
:1005DB000F852180D2A4C2A475F70030FFFDC2FFA6
:1005EB00120A8F22743011D311DDF8F404F5821145
:1005FB00DDF9F4F58311DDFAF4F58475F001E849C2
:10060B004A700990000075840075F00075F830C2CF
:10061B00A6D2A51209732275827C7583FE7584FFA1
:10062B0075F830C2A6D2A575F740A330FFFD120AAC
:10063B000330A504D39001B9D2A675F70030FFFDA6
:10064B00C2FF22743011D311DDF8F404F58211DDF1
:10065B00F9F4F58311DDFAF4F58475F001E8494AF4
:10066B00700990000075840075F00075F830C2A613
:10067B00D2A512097322743011D311DDF8F404F5ED
:10068B008211DDF9F4F58311DDFAF4F58475F001CF
:10069B00E8494A700990000075840075F00075F800
:1006AB0030C2A6D2A512097322743211D311DD11F7
:1006BB00D3F8F404F58211DD11D3F9F4F58311DDD0
:1006CB0011D3FAF4F58475F001E8494A70099000EA
:1006DB000075840075F00075F830C2A6D2A575F7C9
:1006EB00A0A330FFFDE5F711D375F8341209BED284
:1006FB00A675F70030FFFDC2FF22743211D311DD56
:10070B0011D3F8F404F58211DD11D3F9F4F583114B
:10071B00DD11D3FAF4F58475F001E8494A700990BC
:10072B00000075840075F00020061275F830C2A623
:10073B00D2A575F7A0A330FFFDE5F711D3D206D2F2
:10074B000775F8341209BE22743211D311DD11D39F
:10075B00F8F404F58211DD11D3F9F4F58311DD11F1
:10076B00D3FAF4F58475F001E8494A70099000005A
:10077B0075840075F000300623C20675F834120933
:10078B00BE7582E07583FF7584FF120A03D2A675CE
:10079B00F70030FFFDC2FFC2050207AE1209BED340
:1007AB009001F22280FE22743111D390015E310848
:1007BB0022743011D311DD5401F5F011DDF58211E6
:1007CB00DD540FF583E5F070078583FA8582F922F6
:1007DB008583FC8582FB22743211D311DD11D31179
:1007EB00DD11D311DD11D3C2AF75EF0075D20075DA
:1007FB00D30075D40075D84075EF9CD2DD30DFFD8A
:10080B0075F00D900000E01200D3A3E01200D3A30B
:10081B00D5F0F3D2AF2274321200D31200DD1200E6
:10082B00D31200DD1200D31200DD1200D3E53A70B3
:10083B0026858A82858C83E5821200D3E58312009C
:10084B00D3E5361200D3E5371200D3E5381200D3C7
:10085B00E5391200D3C322858A82858C83C3E58256
:10086B0095301200D3E58395311200D3E5369532DE
:10087B001200D3E53795331200D3E53895341200C7
:10088B00D3E53995351200D3C32230C2069001A8A7
:10089B0012032EC2AF75817F75D70043AF0175F878
:1008AB0034C2A7D2A6D2A575FD1FC28C75891112B1
:1008BB000A2BC2A8D288D2B8C2A8C21875200012BF
:1008CB000A70D2C075C0721200FA90019612032EF4
:1008DB00D2AFD5F008C2AFD2C0D2C1D2AF3007036E
:1008EB0012034E1200EA40EA1208FB75F00080E298
:1008FB00C2AFD2C0D2C1D2AFF5F075840090028DD9
:10090B00E493A36044B5F03DE493F9A3E493F8E5D5
:10091B00F01200D390092CC082C083C000C001C369
:10092B0022758400400990011D12010802096AE535
:10093B00834582602A74211200D374311200D312C2
:10094B00010802096AA3A380B774311200D3900285
:10095B005C120108E5F01200D390028A120108C262
:10096B00AFD2C0D2C1D2AF227580FF20A3FDC2A0EF
:10097B008580F7D2A0A3E58245834584C330FFFD74
:10098B00C2FF30A50970E1D39001B90209B3601819
:10099B00E5F06014A3E5824583458420A3FDC2A046
:1009AB00D2A070F0D39001CED2A675F70030FFFD28
:1009BB00C2FF2275F700A3E58245834584C330FF50
:1009CB00FD85F78020A2FDC2A1D2A130A50C70E35A
:1009DB00200624D39001B9020A02601BE5F06017D0
:1009EB00A3E5824583458475800020A2FDC2A1D278
:1009FB00A170EDD39001CE2275F700A3E58245835C
:100A0B004584C330FFFDC2FF70EE22D219783075DA
:100A1B00F0061200DD6002C219F4F608D5F0F322DD
:100A2B00C000C0F0C0E0C28CC2A9783075F010E4F1
:100A3B00F608D5F0FBD0E0D0F0D00022C28CC2A9D2
:100A4B00C0E0E4F58AF58CF536F537F538F53975F0
:100A5B003A00D0E0D2A9D28C22C28CC2A9753A013D
:100A6B00D2A9D28C227800900000758400E8F0A304
:100A7B002410F8E4F0A3B8D0F474C0F0A3E4F0A30E
:100A8B0074F0F022C0F075F00C00000000000000C4
:100A9B00D5F0F6D0F02200000000000000000000AE
:100AAB00000022C0F0C082C083F58375826475F0AC
:100ABB0032D5F0FDD582F7D583F1D083D082D0F03B
:100ACB0022C0E0746451AED0E022C0E074FA51AEA3
:0B0ADB00D0E02251D580F351DE80F8FE
:00000001FF
