:060000000201D6020060BF
:03000B000200E60A
:03001300020113D4
:03001B00020114CB
:0300230002013C9B
:03002B0002013D92
:030033000200D8F0
:03003B0002013B84
:0300430002005E5A
:0300530002016740
:10005B0002005F3232201874C0E0C0D0C2A8E5584D
:10006B001203A7C0F030E04BE55930E046D2E63042
:10007B00E20820E405A2E3B392B1855AF030E1091E
:10008B0020B01AD5F0FA02009D30B011D5F0FA026B
:10009B00009DD2E730E21A20E4170200B5C2E73028
:1000AB00E20F30E405A2E3B392B130E504A2E39290
:1000BB00B1F559C000785475F00406E6700408D504
:1000CB00F0F8D202D000D0F0D0D0D0E032C2DD2098
:1000DB001102D204121BF675220032C0E0C0D0C050
:1000EB0000C0F0783875F00406E6701308D5F0F808
:1000FB00E53D600BD200C28CC2A9E53C1203A7D030
:10010B00F0D000D0D0D0E03232C0E0C0D0C000C0C0
:10011B00F0784F75F00406E6700D08D5F0F8C2AB19
:10012B00D203E5531203A7D0F0D000D0D0D0E032E9
:10013B003232C2CFC0E0C0D0C000C0F0784475F0FE
:10014B000406E6700E08D5F0F81218F0D201E54857
:10015B001203A7D0F0D000D0D0D0E03232C0E0E50F
:10016B003120E710D20FC20EC20D852180D2A4C25E
:10017B00A4D0E022D20F852180D2A4C2A4F5F7C26D
:10018B000EC20D852180D2A4C2A430FFFDD0E02287
:10019B00C0E0E53120E714C28CC2A9D20FC20EC257
:1001AB000D852180D2A4C2A4D0E022C28CC2A9D2D8
:1001BB000F852180D2A4C2A4F5F7C20EC20D8521F2
:1001CB0080D2A4C2A430FFFDD0E022C2AF75817FE4
:1001DB0075D70043AF0175F834C28C7589111216AF
:1001EB004FC28E4389401217FB75C80075CA007544
:1001FB00CB001218B4C2A8D288D2B81219A675FDBA
:10020B001F75200075220075230075676575683DA5
:10021B00121A4B121C69121B57121DDD30C20990AA
:10022B0006F7121DEB02026A900616121DEBC2B600
:10023B00D2B4120D30120CF2121DA51208E0120BE3
:10024B002D120CF5121DA5120CF2121DA51208E0B1
:10025B001208F6120BAD12096D900629121DEBD286
:10026B00C075C07275F000E53120E71FD5F008C2EC
:10027B00AFD2C0D2C1D2AFC0F0120335121DCDD058
:10028B00F040E91202CF75F00080E175F834200FD1
:10029B0002F5F7E520600612033575F83420A30943
:1002AB00121DD21202CF75F834200F0EF5F7C2AF24
:1002BB00D2C0D2C1D2AFF5F780D4C2AFD2C0D2C1B7
:1002CB00D2AF80CAC2AFD2C0D2C1D2AFF5F0758463
:1002DB0000900531E493A36037B5F030E493F9A3B4
:1002EB00E493F8E5F0121DB6900300C082C083C002
:1002FB0000C001C3227584004009900631121DEB2A
:10030B0002032CE583458270F402032CA3A380C463
:10031B00900708121DEBE5F0121DB690071C121D7D
:10032B00EBC2AFD2C0D2C1D2AF22E520700922C23C
:10033B00AFD2C0D2C1D2AF745B121DB6300005C2B2
:10034B0000120441300105C201120448300205C2FB
:10035B000212044F300305C20312046C300405C2B1
:10036B0004120473300505C20512048430060EC254
:10037B000690081A121DEBE567600251CF30070E8D
:10038B00C20790081A121DEBE568600251CF745D2D
:10039B00121DB6C2AFD2C0D2C1D2AF2230E31A20E7
:1003AB001917C0E0E55B30E303121B1575D840D27B
:1003BB00DDD2AED210D219D0E030E010C0E0E55B58
:1003CB0030E003121B15D0E0319BD20530E126C083
:1003DB00E0E55B30E103121B15D0E020E2031216BF
:1003EB0086D20ED20D852180D2A4C2A4C20F852144
:1003FB0080D2A4C2A430E20FC0E0E55B30E203126E
:10040B001B15D0E01216A330E40FC0E0E55B30E41F
:10041B0003121B15D0E01219EA30E50FC0E0E55BC3
:10042B0030E503121B15D0E012183430E602D20669
:10043B0030E702D20722900790121DEB229007A5FE
:10044B00121DEB229007CE121DEBE55920E601227F
:10045B0020E7079007E2121DEB229007F7121DEB26
:10046B00229007B8121DEB227424121DB6121C1A0F
:10047B00900631121DEBC21922319BE52270FCE56F
:10048B005930E64730E7447425121DB61217A09079
:10049B000631121DEB7465121DB612098574961286
:1004AB001D46900631121DEB120510121686D20E48
:1004BB00D20D852180D2A4C2A4C20F852180D2A4E3
:1004CB00C2A4D218D2A80000C218227443121DB6BF
:1004DB00120A3B900631121DEB120510786275F073
:1004EB000406E6701B08D5F0F8C28CC2A9C2CAC2BA
:1004FB00ADC28EC2ABC2A890077D121DEB021A9340
:10050B00E56671A722E55930E61B30E21830E403AB
:10051B0020E70CA2E3B392B130E504B392B1C3C2AE
:10052B00E6C2E7F559225F08C2690CEB3F0CD02BF2
:10053B001B4E2D1B512A1B547208CB5208E053093A
:10054B00E94508F65E096B2409666509856D0A3A6B
:10055B00660A99640BD36F0C11630C29430C2D3075
:10056B000CA2310CAC700CB6500CC06E0CCA4F0CFC
:10057B003223097F7C0B0F330CF8780CF2580CF5F7
:10058B00620D1B420D304D1C88611C0A411C452419
:10059B001C1A3E0D3379174D4816A35917505A178D
:1005AB00397A17552517A06716C43B16C16816F480
:1005BB004717287518F055191F56190B761924264D
:1005CB00196F6A18344A18644B184F6B18696C19F9
:1005DB00EA4C1A1C5119FC711A1F3C1A022F1AE211
:1005EB00401A93281A76291AA4571B32771B3D7E83
:1005FB001B482C0D58200D5B2E0D623D15834615A7
:10060B00C63A15F049161D2716320021556E69742E
:10061B00206973206F6E206C696E652E200020524E
:10062B00656164790D004F4B0D004D656469706910
:10063B00782063686970733A20004D65646970694E
:10064B007820322E312063686970733A20004D6533
:10065B006469706978204D58522063686970733AE9
:10066B0020004D6564697069782054505820636888
:10067B006970733A20004D65646970697820555331
:10068B004220726561646F757420696E7465726661
:10069B006163652E0A4669726D77617265207665B6
:1006AB007273696F6E3A312E312E39610D004B6EBC
:1006BB006F776E20636F6D6D616E64733A200031DE
:1006CB003233343536373839307177657274797522
:1006DB00696F706173646667686A6B6C7A7863764E
:1006EB00626E6D00214572726F720D00215761743D
:1006FB006368646F6720616C6572740D0021556EC1
:10070B006B6E6F776E20636F6D6D616E643A202236
:10071B0000220D00214D656469706978206368695A
:10072B0070626F617264206973206E6F7420636FE7
:10073B006E6E65637465640D0021426164207265A1
:10074B0073706F6E73652066726F6D204D65646993
:10075B00706978202D204E6F20456E61626C65208C
:10076B004F75740D0021465352204661696C6564C8
:10077B000D00224672616D65732066696E69736840
:10078B006564220D0022496E74657276616C206679
:10079B00696E6973686564220D0022506572696F1A
:1007AB00642066696E6973686564220D0022436F6D
:1007BB00756E746572206F766572666C6F776564A3
:1007CB00220D002254726967676572206465746537
:1007DB0063746564220D0022436F696E63696465FF
:1007EB006E63652076616C6964220D0022436F692C
:1007FB006E636964656E636520696E76616C6964AE
:10080B00220D0022436F6D6D616E6431220D00224B
:10081B00436F6D6D616E6432220D002253636F70F6
:10082B0065220D00544F444F20616374696F6E73E2
:10083B003A2000436C6F736520736875747465722E
:10084B0020004F70656E207368757474657220009C
:10085B00537461727420696E74657276616C2000DA
:10086B0053746172742073636F70652000537461ED
:10087B0072742074726967676572200053746172B9
:10088B007420636F756E7465722000436F6D6D61BC
:10089B006E64312000436F6D6D616E643220000118
:1008AB00C00103800105400107000101C021038045
:1008BB0042054063070084900631121DEB0201D6FE
:1008CB00C208852180D2A4C2A4D208852180D2A4DB
:1008DB00C2A4D2A622C208852180D2A4C2A47521AB
:1008EB0089852180D2A4C2A4D2A6227AFF75F834BE
:1008FB00C2FAC20ED20DD20F852180D2A4C2A4C2DD
:10090B00A620A50A753000900744D3020960900019
:10091B0000758400EAF5F7A3E5827017C2AFD2C069
:10092B00D2C1D2AFA884B8080A75300090071FD384
:10093B00020960EA30FFFDC2FF20A5D9E58404035C
:10094B005407F530E5315480F531E58254F0C4039A
:10095B004531F531C3D2A6758400227AAA11F8224B
:10096B0011F6900635121DEB74302530121DB62290
:10097B00121DEB22E530121DB622E531703D75F8E4
:10098B0034C2FAD20ED20DD20F852180D2A4C2A4CA
:10099B00C2A690000075840074FFF5F7A3A884B875
:1009AB00010A75300090071FD30209C030FFFDC24A
:1009BB00FF20A5E6C3D2A67584002275F834D2FABF
:1009CB00C20EC20DD20F852180D2A4C2A4C2A674BE
:1009DB00FFF5F730FFFDC2FF20A5F6D2A62290004F
:1009EB000075840075F834C2FAC20ED20DD20F8591
:1009FB002180D2A4C2A4C2A674FFF58020A3FDC29D
:100A0B00A08580F7D2A0A3A882B80014C2AFD2C031
:100A1B00D2C1D2AFA884B8080790071FD3020A34FB
:100A2B0030FFFDC2FF20A5D2C3D2A67584002200E1
:100A3B0012019B1217A090000075840075F834C248
:100A4B000EC20DD20F852180D2A4C2A4C2A674FF00
:100A5B00F5F7020A69F5F720A2FDC2A1D2A1A3E521
:100A6B00827014C2AFD2C0D2C1D2AFA884B808076B
:100A7B0090071FD3020A9330FFFD85F78020A5D581
:100A8B0020A2FDC2A1D2A1C3D2A67584002275F803
:100A9B0034C2FAC20ED20DC20F852180D2A4C2A4D9
:100AAB00C2A6F5F730FFFD75F000F5F730FFFDC27C
:100ABB00FFD5F0F675F000780088F730FFFDC2FF28
:100ACB00E5F7600B08D5F0F1D2A6900770D322E8BA
:100ADB0075F020C384F530900635121DEBE53024FC
:100AEB0030121DB6740D121DB688F015F078000883
:100AFB0075F7FF30FFFDC2FFE5F7B500CBD5F0EF83
:100B0B00D2A6C3228530F0900000E0121DB6A3E000
:100B1B00121DB6A3E0121DB6A3E0121DB6A3D5F0AD
:100B2B00E922C208852180D2A4C2A4D208852180E3
:100B3B00D2A4C2A475310075300075F834C2FAD254
:100B4B000EC20DD20F852180D2A4C2A4C2A675F00D
:100B5B00007805790490000075F7FF30FFFDC2FFA8
:100B6B0075F78830FFFDC2FFE5F7D822F0A36006CA
:100B7B00046002053114D914781C7904053030E473
:100B8B000DE5316009D2E7F531020B99780130A5FB
:100B9B0003D5F0CCD2A6E5F0F4040475F02084F56F
:100BAB003022E531600F30E70690066D020BC390E3
:100BBB000659020BC3900645121DEBE5302430128B
:100BCB001DB67420121DB62275F834C2FAD20EC2AD
:100BDB000DD20F852180D2A4C2A4C2A674FFF580CA
:100BEB0090000020A3FDC2A08580F7D2A030FFFDAE
:100BFB00C2FFA320A5EDD2A6121DDDE582121DB604
:100C0B00E583121DB622121686D20ED20D852180D7
:100C1B00D2A4C2A4C20F852180D2A4C2A4221201E5
:100C2B009B2212019B413B121DC0F4F582121DC089
:100C3B00F4F583121DC014F5F0D20AC20FD20ED2F6
:100C4B000D852180D2A4C2A47401121D66D2098520
:100C5B002180D2A4C2A4E5F0121D46C2AFD2C0D2ED
:100C6B00C1D2AF00000000C209852180D2A4C2A46A
:100C7B00E5F0121D4600000000A3E583458270CD10
:100C8B007401121D66D20FC20EC20DC20A852180DD
:100C9B00D2A4C2A4C3413BC20C852180D2A4C2A45E
:100CAB0022D20C852180D2A4C2A422C20B85218022
:100CBB00D2A4C2A422D20B852180D2A4C2A422E545
:100CCB0021121DB6229006B9121DEB900531E4934B
:100CDB006008121DB6A3A3A380F4740D121DB622D7
:100CEB00900681121DEB22C2A722D2A722121DC091
:100CFB0054037005D2B4C2B62215E07005C2B4C25B
:100D0B00B62215E07005C2B4D2B622D2B4D2B62246
:100D1B00121DC075F833C2B7F5F730FFFDC2FFD215
:100D2B00B775F83422E480EB121DC05401F5F012B4
:100D3B001DC0F582121DC0540FF583E5F0700785B9
:100D4B0083FA8582F9228583FC8582FB2280FE2231
:100D5B009006CA121DEB22C2AF852180D2A475F07A
:100D6B0000B287B287B287B287B287B287B287B237
:100D7B0087B287B287B287B287B287B287B287B2A0
:100D8B0087B287B287B287B287B287B287B287B290
:100D9B0087B287B287B287B287B287B287B287B280
:100DAB0087B287B287B287B287B287B287B287B270
:10156B0087D5F00EC2A4D2C0D2C1D2AF20A306D26F
:10157B008722020D6C020D62C2A812098574FA1241
:10158B001D4675683DE53CC2E2C2E4C2E0D2E7F518
:10159B003CE558C2E2C2E4D2E0F5581216A3D20ED3
:1015AB00D20D852180D2A4C2A4C20F852180D2A4E2
:1015BB00C2A4D218D2A80000C21822C3121DC09414
:1015CB006C7021121DC09461701A121DC09473703F
:1015DB0013121DC09468700C75C70075C60075B9E1
:1015EB000502E00022C3121DC0540F4430F5F8125F
:1015FB001DC0A2E092A6121DC0F5F730FFFDC2FF81
:10160B00E5F7121DB6E4A2A592E0121DB675F834EB
:10161B00C322C38521F0121DC0F521852180D2A4E0
:10162B00C2A485F021C322C3121DC020E708A2E08B
:10163B0092B6A2E192B4E4A2B692E0A2B492E11205
:10164B001DB6C32212166A7537FF7536FF7535FF47
:10165B0075346775336975327FE4D2E0F53C22C08F
:10166B0000C0F0C0E0C28CC2A9783275F010E4F66D
:10167B0008D5F0FBD0E0D0F0D00022C28CC2A9C0BC
:10168B00E0E4F58AF58CF538F539F53AF53B753D1F
:10169B0000D0E0D2A9D28C22C28CC2A985328A8515
:1016AB00338C85343885353985363A85373B753DEE
:1016BB0001D2A9D28C22121739C2CAC2ADC28CC2B6
:1016CB00A9C2A8C28EC2AB121A93E4D2E0F53CE4D5
:1016DB00F566D1A3D20ED20D852180D2A4C2A4C2AD
:1016EB000F852180D2A4C2A422C2CAC2ADC28CC2B1
:1016FB00A9C2A8C28EC2AB121A93E4D2E0F53CE4A5
:10170B00D2E2D2E1F566D1A3D20ED20D852180D2E1
:10171B00A4C2A4C20F852180D2A4C2A42212019B11
:10172B00C2CAC2ADC28EC2ABC2A8121A9322783201
:10173B0075F006121DC0F4F608D5F0F7121DC0F5B2
:10174B003C22D18622C28CC2A922E4A28C92E0A2B6
:10175B00A992E1121DB6C3E53C121DB675F00678D1
:10176B0032E6F4121DB608D5F0F7858A82858C8394
:10177B00E582F4121DB6E583F4121DB6E538F412BA
:10178B001DB6E539F4121DB6E53AF4121DB6E53B6C
:10179B00F4121DB622E53D7025858A82858C83E582
:1017AB0082121DB6E583121DB6E538121DB6E5395A
:1017BB00121DB6E53A121DB6E53B121DB622858AFF
:1017CB0082858C83C3E5829532121DB6E5839533F2
:1017DB00121DB6E5389534121DB6E5399535121D37
:1017EB00B6E53A9536121DB6E53B9537121DB62276
:1017FB00121818754EFF754DFF754CFF754BFF7525
:10180B004AFF7549FEE4D2E5D2E0F55322C000C091
:10181B00F0C0E0C28EC2AB784975F00FE4F608D584
:10182B00F0FBD0E0D0F0D00022C28EC2AB85498B4A
:10183B00854A8D854B4F854C50854D51854E52D2E7
:10184B00ABD28E22784975F006121DC0F4F608D57E
:10185B00F0F7121DC0F553C322C28EC2AB22E4A215
:10186B008E92E0A2AB92E1121DB6C3E553121DB6E8
:10187B0075F0067849E6F4121DB608D5F0F7858B9E
:10188B0082858D83E582F4121DB6E583F4121DB6B5
:10189B00E54FF4121DB6E550F4121DB6E551F412E6
:1018AB001DB6E552F4121DB6221218D47543FF75FE
:1018BB0042FF7541FF7541FE7540CE753FD2753EB7
:1018CB00FFE4D2E2D2E1F54822C000C0F0C0E0C292
:1018DB00CAC2AD783E75F00FE4F608D5F0FBD0E048
:1018EB00D0F0D00022C2CAC2AD853ECC853FCD859B
:1018FB004044854145854246854347D2ADD2CA22F5
:10190B00783E75F006121DC0F4F608D5F0F7121DDF
:10191B00C0F54822C2CAC2AD22E4A2CA92E0A2AD6F
:10192B0092E1121DB6C3E548121DB675F006783E5E
:10193B00E6F4121DB608D5F0F785CC8285CD83E58C
:10194B0082F4121DB6E583F4121DB6E544F4121DA4
:10195B00B6E545F4121DB6E546F4121DB6E547F49F
:10196B00121DB622C2CAC2ADC28CC2A9C2A8C28EF7
:10197B00C2AB121A93E4D2E2D2E1F548E4D2E0F51D
:10198B003C11F01216A3D20ED20D852180D2A4C227
:10199B00A4C20F852180D2A4C2A4221219CEE4D2F4
:1019AB00E3D2E0F558E4D2E1D2E2D2E3D2E4D2E5DD
:1019BB00F559755A0030E00AD2B030E205A2E39235
:1019CB00B1C322C000C0F0C0E0C2A8C218785475E1
:1019DB00F009E4F608D5F0FBD0E0D0F0D00022E41B
:1019EB00F554F555F556F557D218D2A80000C21884
:1019FB0022121DC0F55822121DC0F559121DC0F53B
:101A0B005AE55930E00AD2B030E205A2E392B1C3F5
:101A1B0022C2A822E4A2A892E0121DB6C3E5581276
:101A2B001DB6E5B0121DB6E554F4121DB6E555F41E
:101A3B00121DB6E556F4121DB6E557F4121DB6226B
:101A4B00755E9B755FFF7560FF7561FF75660012B4
:101A5B001A9322C000C0F0C0E0785E75F009E4F67E
:101A6B0008D5F0FBD0E0D0F0D00022121DC0F4F569
:101A7B005E121DC0F4F55F121DC0F4F560121DC09F
:101A8B00F4F561121DC0F566C2AF855E62855F63BA
:101A9B00856064856165D2AF22E566121DB6E55E91
:101AAB00F4121DB6E55FF4121DB6E560F4121DB617
:101ABB00E561F4121DB6E562F4121DB6E563F4128E
:101ACB001DB6E564F4121DB6E565F4121DB622E4ED
:101ADB00F55BF55CF55D22121DC0F4F55C121DC0C3
:101AEB00F4F55D121DC0F55B22C0E0C084C083C05D
:101AFB0082855C82855D83758400A3E58245837056
:101B0B00F9D082D083D084D0E022C084C083C0823D
:101B1B00855C82855D83758400A3E582458370F9BE
:101B2B00D082D083D08422121DC0F567121DC0F560
:101B3B006822E567121DB6E568121DB622121DC09C
:101B4B000203A7D2B122C2B122B2B1227569C1750B
:101B5B006A01756BBC756C02021B66C000C001C0CC
:101B6B0002C0F0C082C083C0E0C0D0C2AFC374C19A
:101B7B0095697401956A50077569C1756A01C3E56A
:101B8B006C7004E502F56C757500786D75F00013DB
:101B9B005006A6F0057508C305F070F38575F0784F
:101BAB006DE6C4F608D5F0F9A969AA6A900020750C
:101BBB0084008575F0786DE6F0A3E4F0A3C3E99497
:101BCB0001F9EA9400FA400608D5F0EB80E4E6F060
:101BDB00A3E4F0A374F0F0A3D0D0D0E0D083D082F4
:101BEB00D0F0D002D001D000021BF6C2AF75EF00CF
:101BFB0075D22075D30075D400856BEFD2AF22E57B
:101C0B002270FC75D840D2DDD2AED210D21922E5AB
:101C1B0069121DB6E56A121DB6A969AA6A90002061
:101C2B00758400E0121DB6A3E0121DB6A3C3E994A0
:101C3B0001F9EA9400FA50EBC322121DC0F8121DF1
:101C4B00C0F9121DC0FA121DC0540F23234480C2C9
:101C5B00AFF56B886C89698A6A7166D2AF2278009E
:101C6B009003A8758400E8F0A32410F8E4F0A3B85F
:101C7B00D0F474C0F0A3E4F0A374F0F022E522706A
:101C8B00FCD211D219C2AF75EF0075D2A875D30370
:101C9B0075D40075D84075EF9CD2AED2AFD2DD2093
:101CAB0011FDC21975F00D9003A8E0121DB6A3E04B
:101CBB00121DB6A3D5F0F371F6D2AED2AF22C0F09F
:101CCB00C083C082F5F07422121DB690082F121D2E
:101CDB00EBE5F030E00690083E121DEB30E106908C
:101CEB00084D121DEB30E20690085B121DEB30E342
:101CFB000690086B121DEB30E406900878121DEB72
:101D0B0030E506900887121DEB30E6069008961218
:101D1B001DEB30E7069008A0121DEB7422121DB6C6
:101D2B00740D121DB6E5F0D082D083D0F0220000E6
:101D3B000000000000000000000022C0F0C0E0F531
:101D4B00F080100000000000000000000000000008
:101D5B00000000D5F0EDD0E0D0F022C0F0C0E0C024
:101D6B0082F58275F032D5F0FDD582F7D082D0E0C6
:101D7B00D0F022C0F0C082C083F58375826475F009
:101D8B0032D5F0FDD582F7D583F1D083D082D0F058
:101D9B0022C0E07464B17ED0E022C0E074FAB17E60
:101DAB00D0E022B1A580F3B1AE80F8F58020A2FD82
:101DBB00C2A1D2A1227580FF20A3FDC2A0E580D2D3
:101DCB00A02230A302D3227580FFC2A0E580D2A04F
:101DDB00C3227580FF20A307C2A0D2A030A3F92293
:101DEB00C0E0E493600CF580A320A2FDC2A1D2A1B8
:051DFB0080F0D0E022A1
:00000001FF
